:060000000A128A110E280D
:10000800FE00030EF1000408F2000A08F3000A12C9
:100018008A11FB280A128A11112883133D30FD002A
:100028000230FE008730FF00333084000A128A1144
:1000380078220A128A11BD01BE01F601F701F80102
:10004800F90183010A128A11162A0A30831203134E
:10005800A0000030A1007608AF00B0012F08A20070
:100068003008A3000A128A1163210A128A11831226
:1000780003132008B1003108F7000A30A600003049
:10008800A7006430A0000030A1007608AF00B001DE
:100098002F08A2003008A3000A128A1163210A124D
:1000A8008A117708831203132002A8002108031C71
:1000B8002103A9000A128A1192200A128A118312B6
:1000C80003132608B1003108BE006430A6000030D2
:1000D800A7007708AF00B0012F08A0003008A100E2
:1000E800F530A200FF30A3000A128A114D220A122D
:1000F8008A117608831203132007A8002108031821
:10010800210AA9000A128A1192200A128A1183125E
:1001180003132608B1003108F800080083120313FE
:10012800AC01A71F98289928A028A609A709A60AFC
:100138000319A70AAC01AC0AA91FA328A428AD2853
:10014800A809A909A80A0319A90A0130AA002A08B6
:10015800AC06AD01AE01260827040319B428B5285A
:10016800EC28AB01AB0AC32801300310A60DA70D7C
:10017800FF3E031DB9280130AA002A08AB07A71FB4
:10018800C628C728B82801300310AD0DAE0DFF3EB4
:10019800031DC82827082902031DD4282608280279
:1001A800031CD728D828DF282608A8022708031CFC
:1001B800A903A9022D1401300310A70CA60CFF3EB9
:1001C800031DE0280130AB02031DEB28EC28C728EB
:1001D8002C080319F028F128F628AD09AE09AD0A54
:1001E8000319AE0A2E08A7002D08A60008000B1D4B
:1001F800FE28FF2836298312031389017908031D75
:10020800062907291229091109147808333E8400A0
:10021800831300088800F901F90A33297903031DBB
:10022800162917292429091089143E08333E840009
:100238008313000888000230F0007008F9003329A1
:1002480002307906031D29292A293329891009151D
:100258007708333E8400831300088800F9010B11E6
:10026800D9308100831203130C1F3B293C295A29DA
:100278001F0CF000700C0F39003A031D4429452962
:1002880048291E08870059291F0CF000700C0F39E7
:10029800013A031D5029512959291E08F0007008F8
:1002A800BD003D08F0007008F6000C1373088A00C2
:1002B80072088400710E8300FE0E7E0E0900831200
:1002C8000313A501A31F69296A297129A209A30992
:1002D800A20A0319A30AA501A50AA11F7429752951
:1002E8007A29A009A109A00A0319A10A2008210452
:1002F80003197F298029AF29A401A40A8E29013076
:100308000310A00DA10DFF3E031D84290130F40048
:100318007408A407A11F912992298329210823027F
:10032800031D982920082202031C9B299C29A22925
:100338002008A2022108031CA303A3020130031012
:10034800A10CA00CFF3E031DA3290130A402031D2C
:10035800AE29AF29922925080319B329B429B92947
:10036800A209A309A20A0319A30A2308A1002208C3
:10037800A0000800033083160317880089010330A2
:100388008316031385008312031385018316031351
:1003980086018312031386018316031387018312D0
:1003A800031387018316031388018312031388013B
:1003B8008316031389018312031389018316031318
:1003C8000F088F3960388F000F14831203131F082A
:1003D8003F3940389F00831603131F129F12C33002
:1003E800831203139F05831603139F1383120313AA
:1003F8001F140D30F400F40BFF29831203130C13A0
:10040800831603130C170B178B178B160B118111FF
:100418008112011581140114D9308312031381004C
:10042800F90108000A128A11BE210A128A118312E0
:1004380003139F18202A212A442A1F0CB200320CC9
:100448000F39003A031D292A2A2A2F2A1F08C339DF
:1004580004389F003A2A1F0CB200320C0F39013AB7
:10046800031D372A382A3A2AC3309F050C308312D5
:100478000313B200B20B3E2A0000831203139F1429
:100488000A128A1129200A128A111B2A0A128A11B1
:100498000E28F401F50183120313201C542A552A4F
:1004A8005B2A2208F4070318F50A2308F507013028
:1004B8000310A20DA30DFF3E031D5C2A013003109B
:1004C800A10CA00CFF3E031D632A20082104031D74
:1004D8006E2A6F2A4F2A7508A1007408A000080028
:1004E8007E088A007F0882000A128A1174220A1282
:1004F8008A118000840A04087D0603190034FF0A63
:100508000319FE0A782A3F3406345B344F346634C4
:0A0518006D347D3407347F346F34F6
:08400000FF3FFF3FFF3FFF3FC0
:04400E00D420FF3F7C
:00000001FF
